{
  "_format": "hh-sol-artifact-1",
  "contractName": "Governance",
  "sourceName": "contracts/Governance.sol",
  "abi": [
    {
      "inputs": [
        {
          "internalType": "address",
          "name": "_votingToken",
          "type": "address"
        }
      ],
      "stateMutability": "nonpayable",
      "type": "constructor"
    },
    {
      "inputs": [
        {
          "internalType": "address",
          "name": "owner",
          "type": "address"
        }
      ],
      "name": "OwnableInvalidOwner",
      "type": "error"
    },
    {
      "inputs": [
        {
          "internalType": "address",
          "name": "account",
          "type": "address"
        }
      ],
      "name": "OwnableUnauthorizedAccount",
      "type": "error"
    },
    {
      "anonymous": false,
      "inputs": [
        {
          "indexed": true,
          "internalType": "address",
          "name": "previousOwner",
          "type": "address"
        },
        {
          "indexed": true,
          "internalType": "address",
          "name": "newOwner",
          "type": "address"
        }
      ],
      "name": "OwnershipTransferred",
      "type": "event"
    },
    {
      "anonymous": false,
      "inputs": [
        {
          "indexed": true,
          "internalType": "uint256",
          "name": "proposalId",
          "type": "uint256"
        }
      ],
      "name": "ProposalCanceled",
      "type": "event"
    },
    {
      "anonymous": false,
      "inputs": [
        {
          "indexed": true,
          "internalType": "uint256",
          "name": "proposalId",
          "type": "uint256"
        },
        {
          "indexed": true,
          "internalType": "address",
          "name": "proposer",
          "type": "address"
        },
        {
          "indexed": false,
          "internalType": "string",
          "name": "description",
          "type": "string"
        },
        {
          "indexed": false,
          "internalType": "address",
          "name": "target",
          "type": "address"
        },
        {
          "indexed": false,
          "internalType": "uint256",
          "name": "value",
          "type": "uint256"
        }
      ],
      "name": "ProposalCreated",
      "type": "event"
    },
    {
      "anonymous": false,
      "inputs": [
        {
          "indexed": true,
          "internalType": "uint256",
          "name": "proposalId",
          "type": "uint256"
        }
      ],
      "name": "ProposalExecuted",
      "type": "event"
    },
    {
      "anonymous": false,
      "inputs": [
        {
          "indexed": true,
          "internalType": "uint256",
          "name": "proposalId",
          "type": "uint256"
        },
        {
          "indexed": true,
          "internalType": "address",
          "name": "voter",
          "type": "address"
        },
        {
          "indexed": false,
          "internalType": "bool",
          "name": "support",
          "type": "bool"
        },
        {
          "indexed": false,
          "internalType": "uint256",
          "name": "votes",
          "type": "uint256"
        }
      ],
      "name": "VoteCast",
      "type": "event"
    },
    {
      "inputs": [],
      "name": "PROPOSAL_THRESHOLD",
      "outputs": [
        {
          "internalType": "uint256",
          "name": "",
          "type": "uint256"
        }
      ],
      "stateMutability": "view",
      "type": "function"
    },
    {
      "inputs": [],
      "name": "QUORUM_THRESHOLD",
      "outputs": [
        {
          "internalType": "uint256",
          "name": "",
          "type": "uint256"
        }
      ],
      "stateMutability": "view",
      "type": "function"
    },
    {
      "inputs": [],
      "name": "VOTING_PERIOD",
      "outputs": [
        {
          "internalType": "uint256",
          "name": "",
          "type": "uint256"
        }
      ],
      "stateMutability": "view",
      "type": "function"
    },
    {
      "inputs": [
        {
          "internalType": "uint256",
          "name": "proposalId",
          "type": "uint256"
        }
      ],
      "name": "cancelProposal",
      "outputs": [],
      "stateMutability": "nonpayable",
      "type": "function"
    },
    {
      "inputs": [
        {
          "internalType": "uint256",
          "name": "proposalId",
          "type": "uint256"
        }
      ],
      "name": "executeProposal",
      "outputs": [],
      "stateMutability": "nonpayable",
      "type": "function"
    },
    {
      "inputs": [
        {
          "internalType": "uint256",
          "name": "proposalId",
          "type": "uint256"
        }
      ],
      "name": "getProposal",
      "outputs": [
        {
          "internalType": "uint256",
          "name": "id",
          "type": "uint256"
        },
        {
          "internalType": "address",
          "name": "proposer",
          "type": "address"
        },
        {
          "internalType": "string",
          "name": "description",
          "type": "string"
        },
        {
          "internalType": "uint256",
          "name": "startTime",
          "type": "uint256"
        },
        {
          "internalType": "uint256",
          "name": "endTime",
          "type": "uint256"
        },
        {
          "internalType": "uint256",
          "name": "forVotes",
          "type": "uint256"
        },
        {
          "internalType": "uint256",
          "name": "againstVotes",
          "type": "uint256"
        },
        {
          "internalType": "bool",
          "name": "executed",
          "type": "bool"
        },
        {
          "internalType": "bool",
          "name": "canceled",
          "type": "bool"
        }
      ],
      "stateMutability": "view",
      "type": "function"
    },
    {
      "inputs": [],
      "name": "getProposalCount",
      "outputs": [
        {
          "internalType": "uint256",
          "name": "",
          "type": "uint256"
        }
      ],
      "stateMutability": "view",
      "type": "function"
    },
    {
      "inputs": [
        {
          "internalType": "uint256",
          "name": "proposalId",
          "type": "uint256"
        },
        {
          "internalType": "address",
          "name": "voter",
          "type": "address"
        }
      ],
      "name": "getVote",
      "outputs": [
        {
          "internalType": "bool",
          "name": "",
          "type": "bool"
        },
        {
          "internalType": "bool",
          "name": "",
          "type": "bool"
        },
        {
          "internalType": "uint256",
          "name": "",
          "type": "uint256"
        }
      ],
      "stateMutability": "view",
      "type": "function"
    },
    {
      "inputs": [],
      "name": "owner",
      "outputs": [
        {
          "internalType": "address",
          "name": "",
          "type": "address"
        }
      ],
      "stateMutability": "view",
      "type": "function"
    },
    {
      "inputs": [],
      "name": "proposalCount",
      "outputs": [
        {
          "internalType": "uint256",
          "name": "",
          "type": "uint256"
        }
      ],
      "stateMutability": "view",
      "type": "function"
    },
    {
      "inputs": [
        {
          "internalType": "uint256",
          "name": "",
          "type": "uint256"
        }
      ],
      "name": "proposals",
      "outputs": [
        {
          "internalType": "uint256",
          "name": "id",
          "type": "uint256"
        },
        {
          "internalType": "address",
          "name": "proposer",
          "type": "address"
        },
        {
          "internalType": "string",
          "name": "description",
          "type": "string"
        },
        {
          "internalType": "address",
          "name": "target",
          "type": "address"
        },
        {
          "internalType": "bytes",
          "name": "data",
          "type": "bytes"
        },
        {
          "internalType": "uint256",
          "name": "value",
          "type": "uint256"
        },
        {
          "internalType": "uint256",
          "name": "startTime",
          "type": "uint256"
        },
        {
          "internalType": "uint256",
          "name": "endTime",
          "type": "uint256"
        },
        {
          "internalType": "uint256",
          "name": "forVotes",
          "type": "uint256"
        },
        {
          "internalType": "uint256",
          "name": "againstVotes",
          "type": "uint256"
        },
        {
          "internalType": "bool",
          "name": "executed",
          "type": "bool"
        },
        {
          "internalType": "bool",
          "name": "canceled",
          "type": "bool"
        }
      ],
      "stateMutability": "view",
      "type": "function"
    },
    {
      "inputs": [
        {
          "internalType": "string",
          "name": "description",
          "type": "string"
        },
        {
          "internalType": "address",
          "name": "target",
          "type": "address"
        },
        {
          "internalType": "bytes",
          "name": "data",
          "type": "bytes"
        },
        {
          "internalType": "uint256",
          "name": "value",
          "type": "uint256"
        }
      ],
      "name": "proposeChange",
      "outputs": [
        {
          "internalType": "uint256",
          "name": "",
          "type": "uint256"
        }
      ],
      "stateMutability": "nonpayable",
      "type": "function"
    },
    {
      "inputs": [],
      "name": "renounceOwnership",
      "outputs": [],
      "stateMutability": "nonpayable",
      "type": "function"
    },
    {
      "inputs": [
        {
          "internalType": "address",
          "name": "newOwner",
          "type": "address"
        }
      ],
      "name": "transferOwnership",
      "outputs": [],
      "stateMutability": "nonpayable",
      "type": "function"
    },
    {
      "inputs": [
        {
          "internalType": "uint256",
          "name": "proposalId",
          "type": "uint256"
        },
        {
          "internalType": "bool",
          "name": "support",
          "type": "bool"
        }
      ],
      "name": "vote",
      "outputs": [],
      "stateMutability": "nonpayable",
      "type": "function"
    },
    {
      "inputs": [
        {
          "internalType": "uint256",
          "name": "",
          "type": "uint256"
        },
        {
          "internalType": "address",
          "name": "",
          "type": "address"
        }
      ],
      "name": "votes",
      "outputs": [
        {
          "internalType": "bool",
          "name": "hasVoted",
          "type": "bool"
        },
        {
          "internalType": "bool",
          "name": "support",
          "type": "bool"
        },
        {
          "internalType": "uint256",
          "name": "votes",
          "type": "uint256"
        }
      ],
      "stateMutability": "view",
      "type": "function"
    },
    {
      "inputs": [
        {
          "internalType": "address",
          "name": "",
          "type": "address"
        }
      ],
      "name": "votingPower",
      "outputs": [
        {
          "internalType": "uint256",
          "name": "",
          "type": "uint256"
        }
      ],
      "stateMutability": "view",
      "type": "function"
    },
    {
      "inputs": [],
      "name": "votingToken",
      "outputs": [
        {
          "internalType": "contract IERC20",
          "name": "",
          "type": "address"
        }
      ],
      "stateMutability": "view",
      "type": "function"
    }
  ],
  "bytecode": "0x6080346100c657601f61140a38819003918201601f19168301916001600160401b038311848410176100cb578084926020946040528339810103126100c657516001600160a01b0390818116908190036100c65733156100ad5760005460018060a01b0319903382821617600055604051933391167f8be0079c531659141344cd1fd0a4f28419497f9722a3daafe3b4186f6b6457e0600080a3600154161760015561132890816100e28239f35b604051631e4fbdf760e01b815260006004820152602490fd5b600080fd5b634e487b7160e01b600052604160045260246000fdfe608080604052600436101561001357600080fd5b60003560e01c908163013cf08b14610f39575080630d61b51914610ccb5780635e510b6014610ca6578063715018a614610c4d578063724429f8146107375780638da5cb5b1461070e578063a6c26603146106ea578063b0340123146106c1578063b1610d7e146106a3578063bc3f931f1461029e578063c07473f614610669578063c08cc02d14610280578063c7f758a8146105ac578063c9d27afe14610315578063d23254b41461029e578063da35c66414610280578063e0a8f6f5146101735763f2fde38b146100e557600080fd5b3461016e57602036600319011261016e576100fe6111ce565b6101066112c6565b6001600160a01b0390811690811561015557600054826001600160601b0360a01b821617600055167f8be0079c531659141344cd1fd0a4f28419497f9722a3daafe3b4186f6b6457e0600080a3005b604051631e4fbdf760e01b815260006004820152602490fd5b600080fd5b3461016e57602036600319011261016e5760043560008181526002602052604090206001810154336001600160a01b0391821614908115610272575b501561023c57600a0180546101c760ff8216156111e4565b60ff8160081c166102045761ff0019166101001790557f789cf55be980739dad1d0699b93b58e806b51c9d96619bfa8fe0a28abaa7b30c600080a2005b60405162461bcd60e51b815260206004820152601060248201526f105b1c9958591e4818d85b98d95b195960821b6044820152606490fd5b60405162461bcd60e51b815260206004820152600e60248201526d139bdd08185d5d1a1bdc9a5e995960921b6044820152606490fd5b9050600054163314836101af565b3461016e57600036600319011261016e576020600554604051908152f35b3461016e57604036600319011261016e576102b76111b8565b600435600052600360205260406000209060018060a01b031660005260205260406000206001815491015490610311604051928260ff80869560081c16911684604091949392606082019515158252151560208201520152565b0390f35b3461016e57604036600319011261016e5760248035801515916004359183810361016e57826000526020906002825260406000209060068201544210610573576007820154421161054057600a82015460ff81166104fc5760ff61037d9160081c1615611223565b846000526003835260406000203360005283526040600020805460ff81166104c8576001546040516370a0823160e01b8152336004820152969086908890839082906001600160a01b03165afa9687156104bc5760009761048d575b508615610458575061ffff191682151560081b61ff0016176001908117825585910155156104435760080161040f838254611263565b90555b6040519384528301527fcbdf6214089cba887ecbf35a0b6a734589959c9763342c756bb2a80ca2bc9f6e60403393a3005b600901610451838254611263565b9055610412565b85600f6064926040519262461bcd60e51b845260048401528201526e2737903b37ba34b733903837bbb2b960891b6044820152fd5b9096508581813d83116104b5575b6104a58183611103565b8101031261016e575195896103d9565b503d61049b565b6040513d6000823e3d90fd5b60405162461bcd60e51b815260048101869052600d818801526c105b1c9958591e481d9bdd1959609a1b6044820152606490fd5b60405162461bcd60e51b8152600481018590526019818701527f50726f706f73616c20616c7265616479206578656375746564000000000000006044820152606490fd5b60405162461bcd60e51b815260048101849052600c818601526b159bdd1a5b99c8195b99195960a21b6044820152606490fd5b60405162461bcd60e51b81526004810184905260128186015271159bdd1a5b99c81b9bdd081cdd185c9d195960721b6044820152606490fd5b3461016e57602036600319011261016e576004356000526002602052604060002080549060018060a01b036001820154169060ff6006820154916007810154600882015460098301549161063a600261061b600a87015496610614604051809481930161106d565b0382611103565b604051998a99610120918b5260208b01528060408b0152890190611125565b956060880152608087015260a086015260c0850152818116151560e085015260081c1615156101008301520390f35b3461016e57602036600319011261016e576001600160a01b0361068a6111ce565b1660005260046020526020604060002054604051908152f35b3461016e57600036600319011261016e57602060405162093a808152f35b3461016e57600036600319011261016e576001546040516001600160a01b039091168152602090f35b3461016e57600036600319011261016e576020604051683635c9adc5dea000008152f35b3461016e57600036600319011261016e576000546040516001600160a01b039091168152602090f35b3461016e57608036600319011261016e5760043567ffffffffffffffff811161016e573660238201121561016e57610779903690602481600401359101611181565b6107816111b8565b60443567ffffffffffffffff811161016e573660238201121561016e576107b2903690602481600401359101611181565b6001546040516370a0823160e01b815233600482015291939190602090829060249082906001600160a01b03165afa80156104bc57600090610c12575b683635c9adc5dea00000915010610bcd57600554916000198314610bb7576001830160055562093a8042014211610bb757604051938461018081011067ffffffffffffffff61018087011117610b2457610180850160405260018401855233602086015282604086015260018060a01b0382166060860152608085015260643560a08501524260c085015262093a80420160e08501526000610100850152600061012085015260006101408501526000610160850152600183016000526002602052604060002093805185556001850160018060a01b036020830151166001600160601b0360a01b825416179055604081015180519067ffffffffffffffff8211610b245761090e8261090560028a0154611033565b60028a01611270565b602090601f8311600114610b455761093f929160009183610b3a575b50508160011b916000199060031b1c19161790565b60028601555b6003850160018060a01b036060830151166001600160601b0360a01b825416179055608081015194855167ffffffffffffffff8111610b245760209661099b826109926004860154611033565b60048601611270565b8790601f8311600114610aac57926109d58361016094600a94610a409897600092610aa15750508160011b916000199060031b1c19161790565b60048201555b60a0840151600582015560c0840151600682015560e08401516007820155610100840151600882015561012084015160098201550191610140810151151560ff801985541691161783550151151561ff00825491151560081b169061ff001916179055565b610a5560405192606084526060840190611125565b9060018060a01b03168483015260643560408301527f36ef39b15ae87208645c010139b1c8b7b25a358bb68989fefcc82b1e0754bcbd33928060018601930390a3600160405191018152f35b015190508c8061092a565b9060048401600052886000209160005b601f1985168110610b0d575083600a93610a4097969360019361016097601f19811610610af4575b505050811b0160048201556109db565b015160001960f88460031b161c191690558b8080610ae4565b91928a600181928685015181550194019201610abc565b634e487b7160e01b600052604160045260246000fd5b01519050888061092a565b9190600288016000526020600020906000935b601f1984168510610b9c576001945083601f19811610610b83575b505050811b016002860155610945565b015160001960f88460031b161c19169055878080610b73565b81810151835560209485019460019093019290910190610b58565b634e487b7160e01b600052601160045260246000fd5b60405162461bcd60e51b815260206004820152601960248201527f496e73756666696369656e7420766f74696e6720706f776572000000000000006044820152606490fd5b506020813d602011610c45575b81610c2c60209383611103565b8101031261016e57683635c9adc5dea0000090516107ef565b3d9150610c1f565b3461016e57600036600319011261016e57610c666112c6565b600080546001600160a01b0319811682556001600160a01b03167f8be0079c531659141344cd1fd0a4f28419497f9722a3daafe3b4186f6b6457e08280a3005b3461016e57600036600319011261016e57602060405169021e19e0c9bab24000008152f35b3461016e5760208060031936011261016e5760043590816000526002815260406000206007810154421115610f0157600a8101805491610d0e60ff8416156111e4565b610d1e60ff8460081c1615611223565b60088101546009820154811115610ec65769021e19e0c9bab240000011610e8c57600191600160ff1980951617905560018060a01b036003820154169260046005830154920190604051936000928054610d7781611033565b9360018216918215610e75575050600114610e3a575b505050916000939181859403925af13d15610e35573d610dac81611165565b90610dba6040519283611103565b81526000833d92013e5b15610df157507f712ae1383f79ac853f8d882153778e0260ef8f03b504e2866e0593e04d2b291f600080a2005b6064906040519062461bcd60e51b82526004820152601960248201527f50726f706f73616c20657865637574696f6e206661696c6564000000000000006044820152fd5b610dc4565b909192506000528560002090866000925b848410610e6357505050908301905081836000610d8d565b80548785015292019187908201610e4b565b168752505050801515028301905081836000610d8d565b60405162461bcd60e51b8152600481018590526012602482015271145d5bdc9d5b481b9bdd081c995858da195960721b6044820152606490fd5b60405162461bcd60e51b8152600481018690526013602482015272141c9bdc1bdcd85b081b9bdd081c185cdcd959606a1b6044820152606490fd5b60405162461bcd60e51b815260048101839052601060248201526f159bdd1a5b99c81b9bdd08195b99195960821b6044820152606490fd5b3461016e57602036600319011261016e5760043560005260026020526040806000209160ff83549360018060a01b03908160018201541691610f8985610f82816002860161106d565b0386611103565b600382015416938551610fa381610614816004870161106d565b600583015495610ffc600685015491600786015493610fe9600888015496600a60098a0154990154998d519e8f9e8f6101809384938252602082015201528d0190611125565b9160608c01528a820360808c0152611125565b9660a089015260c088015260e0870152610100860152610120850152818116151561014085015260081c1615156101608301520390f35b90600182811c92168015611063575b602083101461104d57565b634e487b7160e01b600052602260045260246000fd5b91607f1691611042565b80546000939261107c82611033565b918282526020936001916001811690816000146110e457506001146110a3575b5050505050565b90939495506000929192528360002092846000945b8386106110d05750505050010190388080808061109c565b8054858701830152940193859082016110b8565b60ff19168685015250505090151560051b01019150388080808061109c565b90601f8019910116810190811067ffffffffffffffff821117610b2457604052565b919082519283825260005b848110611151575050826000602080949584010152601f8019910116010190565b602081830181015184830182015201611130565b67ffffffffffffffff8111610b2457601f01601f191660200190565b92919261118d82611165565b9161119b6040519384611103565b82948184528183011161016e578281602093846000960137010152565b602435906001600160a01b038216820361016e57565b600435906001600160a01b038216820361016e57565b156111eb57565b60405162461bcd60e51b815260206004820152601060248201526f105b1c9958591e48195e1958dd5d195960821b6044820152606490fd5b1561122a57565b60405162461bcd60e51b8152602060048201526011602482015270141c9bdc1bdcd85b0818d85b98d95b1959607a1b6044820152606490fd5b91908201809211610bb757565b90601f811161127e57505050565b6000916000526020600020906020601f850160051c830194106112bc575b601f0160051c01915b8281106112b157505050565b8181556001016112a5565b909250829061129c565b6000546001600160a01b031633036112da57565b60405163118cdaa760e01b8152336004820152602490fdfea264697066735822122068ab5eb0c229d25bc2b534ca74c55b37e06eba1068a49dd588ec7afe75fbf54764736f6c63430008180033",
  "linkReferences": {},
  "deployedLinkReferences": {}
}