{
  "_format": "hh-sol-artifact-1",
  "contractName": "RWARegistry",
  "sourceName": "contracts/RWARegistry.sol",
  "abi": [
    {
      "inputs": [],
      "stateMutability": "nonpayable",
      "type": "constructor"
    },
    {
      "inputs": [
        {
          "internalType": "address",
          "name": "spender",
          "type": "address"
        },
        {
          "internalType": "uint256",
          "name": "allowance",
          "type": "uint256"
        },
        {
          "internalType": "uint256",
          "name": "needed",
          "type": "uint256"
        }
      ],
      "name": "ERC20InsufficientAllowance",
      "type": "error"
    },
    {
      "inputs": [
        {
          "internalType": "address",
          "name": "sender",
          "type": "address"
        },
        {
          "internalType": "uint256",
          "name": "balance",
          "type": "uint256"
        },
        {
          "internalType": "uint256",
          "name": "needed",
          "type": "uint256"
        }
      ],
      "name": "ERC20InsufficientBalance",
      "type": "error"
    },
    {
      "inputs": [
        {
          "internalType": "address",
          "name": "approver",
          "type": "address"
        }
      ],
      "name": "ERC20InvalidApprover",
      "type": "error"
    },
    {
      "inputs": [
        {
          "internalType": "address",
          "name": "receiver",
          "type": "address"
        }
      ],
      "name": "ERC20InvalidReceiver",
      "type": "error"
    },
    {
      "inputs": [
        {
          "internalType": "address",
          "name": "sender",
          "type": "address"
        }
      ],
      "name": "ERC20InvalidSender",
      "type": "error"
    },
    {
      "inputs": [
        {
          "internalType": "address",
          "name": "spender",
          "type": "address"
        }
      ],
      "name": "ERC20InvalidSpender",
      "type": "error"
    },
    {
      "inputs": [
        {
          "internalType": "address",
          "name": "owner",
          "type": "address"
        }
      ],
      "name": "OwnableInvalidOwner",
      "type": "error"
    },
    {
      "inputs": [
        {
          "internalType": "address",
          "name": "account",
          "type": "address"
        }
      ],
      "name": "OwnableUnauthorizedAccount",
      "type": "error"
    },
    {
      "anonymous": false,
      "inputs": [
        {
          "indexed": true,
          "internalType": "address",
          "name": "owner",
          "type": "address"
        },
        {
          "indexed": true,
          "internalType": "address",
          "name": "spender",
          "type": "address"
        },
        {
          "indexed": false,
          "internalType": "uint256",
          "name": "value",
          "type": "uint256"
        }
      ],
      "name": "Approval",
      "type": "event"
    },
    {
      "anonymous": false,
      "inputs": [
        {
          "indexed": true,
          "internalType": "address",
          "name": "custodian",
          "type": "address"
        }
      ],
      "name": "CustodianAuthorized",
      "type": "event"
    },
    {
      "anonymous": false,
      "inputs": [
        {
          "indexed": true,
          "internalType": "address",
          "name": "custodian",
          "type": "address"
        }
      ],
      "name": "CustodianRevoked",
      "type": "event"
    },
    {
      "anonymous": false,
      "inputs": [
        {
          "indexed": true,
          "internalType": "address",
          "name": "previousOwner",
          "type": "address"
        },
        {
          "indexed": true,
          "internalType": "address",
          "name": "newOwner",
          "type": "address"
        }
      ],
      "name": "OwnershipTransferred",
      "type": "event"
    },
    {
      "anonymous": false,
      "inputs": [
        {
          "indexed": true,
          "internalType": "uint256",
          "name": "tokenId",
          "type": "uint256"
        },
        {
          "indexed": true,
          "internalType": "address",
          "name": "owner",
          "type": "address"
        },
        {
          "indexed": false,
          "internalType": "uint256",
          "name": "value",
          "type": "uint256"
        }
      ],
      "name": "RWAMinted",
      "type": "event"
    },
    {
      "anonymous": false,
      "inputs": [
        {
          "indexed": true,
          "internalType": "uint256",
          "name": "tokenId",
          "type": "uint256"
        },
        {
          "indexed": true,
          "internalType": "address",
          "name": "owner",
          "type": "address"
        },
        {
          "indexed": false,
          "internalType": "uint256",
          "name": "value",
          "type": "uint256"
        }
      ],
      "name": "RWARedeemed",
      "type": "event"
    },
    {
      "anonymous": false,
      "inputs": [
        {
          "indexed": true,
          "internalType": "address",
          "name": "from",
          "type": "address"
        },
        {
          "indexed": true,
          "internalType": "address",
          "name": "to",
          "type": "address"
        },
        {
          "indexed": false,
          "internalType": "uint256",
          "name": "value",
          "type": "uint256"
        }
      ],
      "name": "Transfer",
      "type": "event"
    },
    {
      "inputs": [
        {
          "internalType": "address",
          "name": "owner",
          "type": "address"
        },
        {
          "internalType": "address",
          "name": "spender",
          "type": "address"
        }
      ],
      "name": "allowance",
      "outputs": [
        {
          "internalType": "uint256",
          "name": "",
          "type": "uint256"
        }
      ],
      "stateMutability": "view",
      "type": "function"
    },
    {
      "inputs": [
        {
          "internalType": "address",
          "name": "spender",
          "type": "address"
        },
        {
          "internalType": "uint256",
          "name": "value",
          "type": "uint256"
        }
      ],
      "name": "approve",
      "outputs": [
        {
          "internalType": "bool",
          "name": "",
          "type": "bool"
        }
      ],
      "stateMutability": "nonpayable",
      "type": "function"
    },
    {
      "inputs": [
        {
          "internalType": "address",
          "name": "custodian",
          "type": "address"
        }
      ],
      "name": "authorizeCustodian",
      "outputs": [],
      "stateMutability": "nonpayable",
      "type": "function"
    },
    {
      "inputs": [
        {
          "internalType": "address",
          "name": "",
          "type": "address"
        }
      ],
      "name": "authorizedCustodians",
      "outputs": [
        {
          "internalType": "bool",
          "name": "",
          "type": "bool"
        }
      ],
      "stateMutability": "view",
      "type": "function"
    },
    {
      "inputs": [
        {
          "internalType": "address",
          "name": "account",
          "type": "address"
        }
      ],
      "name": "balanceOf",
      "outputs": [
        {
          "internalType": "uint256",
          "name": "",
          "type": "uint256"
        }
      ],
      "stateMutability": "view",
      "type": "function"
    },
    {
      "inputs": [],
      "name": "decimals",
      "outputs": [
        {
          "internalType": "uint8",
          "name": "",
          "type": "uint8"
        }
      ],
      "stateMutability": "view",
      "type": "function"
    },
    {
      "inputs": [
        {
          "internalType": "uint256",
          "name": "tokenId",
          "type": "uint256"
        }
      ],
      "name": "getRWA",
      "outputs": [
        {
          "internalType": "string",
          "name": "name",
          "type": "string"
        },
        {
          "internalType": "string",
          "name": "description",
          "type": "string"
        },
        {
          "internalType": "uint256",
          "name": "value",
          "type": "uint256"
        },
        {
          "internalType": "address",
          "name": "custodian",
          "type": "address"
        },
        {
          "internalType": "bool",
          "name": "verified",
          "type": "bool"
        },
        {
          "internalType": "uint256",
          "name": "createdAt",
          "type": "uint256"
        }
      ],
      "stateMutability": "view",
      "type": "function"
    },
    {
      "inputs": [],
      "name": "getTotalRWAs",
      "outputs": [
        {
          "internalType": "uint256",
          "name": "",
          "type": "uint256"
        }
      ],
      "stateMutability": "view",
      "type": "function"
    },
    {
      "inputs": [
        {
          "internalType": "address",
          "name": "to",
          "type": "address"
        },
        {
          "internalType": "string",
          "name": "name",
          "type": "string"
        },
        {
          "internalType": "string",
          "name": "description",
          "type": "string"
        },
        {
          "internalType": "uint256",
          "name": "value",
          "type": "uint256"
        },
        {
          "internalType": "address",
          "name": "custodian",
          "type": "address"
        }
      ],
      "name": "mintRWA",
      "outputs": [
        {
          "internalType": "uint256",
          "name": "",
          "type": "uint256"
        }
      ],
      "stateMutability": "nonpayable",
      "type": "function"
    },
    {
      "inputs": [],
      "name": "name",
      "outputs": [
        {
          "internalType": "string",
          "name": "",
          "type": "string"
        }
      ],
      "stateMutability": "view",
      "type": "function"
    },
    {
      "inputs": [],
      "name": "nextTokenId",
      "outputs": [
        {
          "internalType": "uint256",
          "name": "",
          "type": "uint256"
        }
      ],
      "stateMutability": "view",
      "type": "function"
    },
    {
      "inputs": [],
      "name": "owner",
      "outputs": [
        {
          "internalType": "address",
          "name": "",
          "type": "address"
        }
      ],
      "stateMutability": "view",
      "type": "function"
    },
    {
      "inputs": [
        {
          "internalType": "uint256",
          "name": "tokenId",
          "type": "uint256"
        },
        {
          "internalType": "uint256",
          "name": "amount",
          "type": "uint256"
        }
      ],
      "name": "redeemRWA",
      "outputs": [],
      "stateMutability": "nonpayable",
      "type": "function"
    },
    {
      "inputs": [],
      "name": "renounceOwnership",
      "outputs": [],
      "stateMutability": "nonpayable",
      "type": "function"
    },
    {
      "inputs": [
        {
          "internalType": "address",
          "name": "custodian",
          "type": "address"
        }
      ],
      "name": "revokeCustodian",
      "outputs": [],
      "stateMutability": "nonpayable",
      "type": "function"
    },
    {
      "inputs": [
        {
          "internalType": "uint256",
          "name": "",
          "type": "uint256"
        }
      ],
      "name": "rwas",
      "outputs": [
        {
          "internalType": "string",
          "name": "name",
          "type": "string"
        },
        {
          "internalType": "string",
          "name": "description",
          "type": "string"
        },
        {
          "internalType": "uint256",
          "name": "value",
          "type": "uint256"
        },
        {
          "internalType": "address",
          "name": "custodian",
          "type": "address"
        },
        {
          "internalType": "bool",
          "name": "verified",
          "type": "bool"
        },
        {
          "internalType": "uint256",
          "name": "createdAt",
          "type": "uint256"
        }
      ],
      "stateMutability": "view",
      "type": "function"
    },
    {
      "inputs": [],
      "name": "symbol",
      "outputs": [
        {
          "internalType": "string",
          "name": "",
          "type": "string"
        }
      ],
      "stateMutability": "view",
      "type": "function"
    },
    {
      "inputs": [],
      "name": "totalSupply",
      "outputs": [
        {
          "internalType": "uint256",
          "name": "",
          "type": "uint256"
        }
      ],
      "stateMutability": "view",
      "type": "function"
    },
    {
      "inputs": [
        {
          "internalType": "address",
          "name": "to",
          "type": "address"
        },
        {
          "internalType": "uint256",
          "name": "value",
          "type": "uint256"
        }
      ],
      "name": "transfer",
      "outputs": [
        {
          "internalType": "bool",
          "name": "",
          "type": "bool"
        }
      ],
      "stateMutability": "nonpayable",
      "type": "function"
    },
    {
      "inputs": [
        {
          "internalType": "address",
          "name": "from",
          "type": "address"
        },
        {
          "internalType": "address",
          "name": "to",
          "type": "address"
        },
        {
          "internalType": "uint256",
          "name": "value",
          "type": "uint256"
        }
      ],
      "name": "transferFrom",
      "outputs": [
        {
          "internalType": "bool",
          "name": "",
          "type": "bool"
        }
      ],
      "stateMutability": "nonpayable",
      "type": "function"
    },
    {
      "inputs": [
        {
          "internalType": "address",
          "name": "newOwner",
          "type": "address"
        }
      ],
      "name": "transferOwnership",
      "outputs": [],
      "stateMutability": "nonpayable",
      "type": "function"
    },
    {
      "inputs": [
        {
          "internalType": "uint256",
          "name": "tokenId",
          "type": "uint256"
        }
      ],
      "name": "verifyRWA",
      "outputs": [],
      "stateMutability": "nonpayable",
      "type": "function"
    }
  ],
  "bytecode": "0x6080346200039b576001600160401b0390604090808201838111828210176200029b578252601681526020927f5265616c20576f726c6420417373657420546f6b656e0000000000000000000084830152825190838201828110828211176200029b57845260038083526252574160e81b8684015283518281116200029b578154906001958683811c9316801562000390575b898410146200037a578190601f9384811162000324575b508990848311600114620002bd57600092620002b1575b505060001982851b1c191690861b1782555b83519283116200029b576004938454978689811c9916801562000290575b818a10146200027b578883869798999a116200021f575b5080928511600114620001b15750600093620001a5575b505082851b92600019911b1c19161781555b33156200018e575060058054336001600160a01b0319821681179092559251926001600160a01b03167f8be0079c531659141344cd1fd0a4f28419497f9722a3daafe3b4186f6b6457e0600080a360085561124a9081620003a18239f35b6024906000845191631e4fbdf760e01b8352820152fd5b0151915038806200011e565b929190879550601f1985168760005284600020946000905b828210620002055750508511620001ea575b50505050811b01815562000130565b01519060f884600019921b161c1916905538808080620001db565b8484015187558a98909601959384019390810190620001c9565b90919293945086600052816000208480880160051c82019284891062000271575b918a91899897969594930160051c01915b8281106200026157505062000107565b600081558897508a910162000251565b9250819262000240565b602286634e487b7160e01b6000525260246000fd5b98607f1698620000f0565b634e487b7160e01b600052604160045260246000fd5b015190503880620000c0565b90889350601f19831691866000528b6000209260005b8d8282106200030d5750508411620002f4575b505050811b018255620000d2565b015160001983871b60f8161c19169055388080620002e6565b8385015186558c97909501949384019301620002d3565b90915084600052896000208480850160051c8201928c861062000370575b918a91869594930160051c01915b82811062000360575050620000a9565b600081558594508a910162000350565b9250819262000342565b634e487b7160e01b600052602260045260246000fd5b92607f169262000092565b600080fdfe608080604052600436101561001357600080fd5b60003560e01c90816306fdde0314610e8457508063095ea7b314610dfe5780630e63357114610d9857806318160ddd14610d7a5780631b1a22d314610d1157806323b872dd14610c1f5780632e220db114610bdf578063313ce56714610bc35780636cf7adac14610b5757806370a0823114610b1d578063715018a614610ac057806375794a3c14610aa25780638903b4dc14610a775780638da5cb5b14610a4e57806395d89b411461096b578063a9059cbb1461093a578063b66c6b2914610430578063cd95cc30146102a2578063d43bfc4b14610263578063dd62ed3e14610212578063ddca659b146101a45763f2fde38b1461011157600080fd5b3461019f57602036600319011261019f5761012a610f6f565b61013261113c565b6001600160a01b0390811690811561018657600554826bffffffffffffffffffffffff60a01b821617600555167f8be0079c531659141344cd1fd0a4f28419497f9722a3daafe3b4186f6b6457e0600080a3005b604051631e4fbdf760e01b815260006004820152602490fd5b600080fd5b3461019f57602036600319011261019f576004356000526006602052604060002060028101549061020e60038201546004830154906101ee60016101e786610ff7565b9501610ff7565b60405195869560a084901c60ff16936001600160a01b031692908761109c565b0390f35b3461019f57604036600319011261019f5761022b610f6f565b610233610f85565b9060018060a01b038091166000526001602052604060002091166000526020526020604060002054604051908152f35b3461019f57602036600319011261019f576001600160a01b03610284610f6f565b166000526007602052602060ff604060002054166040519015158152f35b3461019f57604036600319011261019f5760043560243590806000526020906006825260ff60036040600020015460a01c16156103f857336000526000825282604060002054106103bc5733156103a3573360005260008252604060002054918380841061037c577f1fff32c33414ec1e9f34765d2f84f1edf659459ae9324e382bdccf3816799ab09293336000526000835203604060002055836002540360025560006040518581527fddf252ad1be2c89b69c2b068fc378daa952ba7f163c4a11628f55a4df523b3ef833392a36040519384523393a3005b60405163391434e360e21b8152336004820152602481018590526044810191909152606490fd5b604051634b637e8f60e11b815260006004820152602490fd5b60405162461bcd60e51b8152600481018390526014602482015273496e73756666696369656e742062616c616e636560601b6044820152606490fd5b60405162461bcd60e51b815260048101839052601060248201526f1495d0481b9bdd081d995c9a599a595960821b6044820152606490fd5b3461019f5760a036600319011261019f57610449610f6f565b60243567ffffffffffffffff811161019f576104699036906004016110e5565b9060443567ffffffffffffffff811161019f5761048a9036906004016110e5565b916084356001600160a01b038116810361019f5733600052600760205260ff604060002054168015610926575b156108e1576064351561089c576008549360001985146106cf5760018501600855604051928360c081011067ffffffffffffffff60c0860111176107c55760c0840160405283526020830152606435604083015260018060a01b03166060820152600060808201524260a0820152826000526006602052604060002090805180519067ffffffffffffffff82116107c55781906105548554610f9b565b601f811161084c575b50602090601f83116001146107e6576000926107db575b50508160011b916000199060031b1c19161782555b602081015180519067ffffffffffffffff82116107c5576105ad6001850154610f9b565b601f811161077e575b50602090601f83116001146107095791806004949260a0946000926106fe575b50508160011b916000199060031b1c19161760018501555b6040810151600285015560038401600180841b0360608301511681549060ff851b60808501511515861b16916affffffffffffffffffffff60a81b1617179055015191015560018060a01b03169081156106e5576002549160643583018093116106cf576020926002558060005260008352604060002060643581540190558060007fddf252ad1be2c89b69c2b068fc378daa952ba7f163c4a11628f55a4df523b3ef856040516064358152a3817f95993f3d8b7d38a2c8b1cf9c702f472c4e4d9e5f55f4e2baccbccd5cc5c9b9b9846040516064358152a3604051908152f35b634e487b7160e01b600052601160045260246000fd5b60405163ec442f0560e01b815260006004820152602490fd5b0151905088806105d6565b906001850160005260206000209160005b601f19851681106107665750926004949260019260a09583601f1981161061074d575b505050811b0160018501556105ee565b015160001960f88460031b161c1916905588808061073d565b9192602060018192868501518155019401920161071a565b600185016000526020600020601f840160051c8101602085106107be575b601f830160051c820181106107b25750506105b6565b6000815560010161079c565b508061079c565b634e487b7160e01b600052604160045260246000fd5b015190508680610574565b6000868152602081209350601f198516905b818110610834575090846001959493921061081b575b505050811b018255610589565b015160001960f88460031b161c1916905586808061080e565b929360206001819287860151815501950193016107f8565b909150846000526020600020601f840160051c810160208510610895575b90849392915b601f830160051c8201811061088657505061055d565b60008155859450600101610870565b508061086a565b60405162461bcd60e51b815260206004820152601c60248201527f56616c7565206d7573742062652067726561746572207468616e2030000000006044820152606490fd5b60405162461bcd60e51b815260206004820152601860248201527f4e6f7420617574686f72697a656420637573746f6469616e00000000000000006044820152606490fd5b506005546001600160a01b031633146104b7565b3461019f57604036600319011261019f57610960610956610f6f565b6024359033611168565b602060405160018152f35b3461019f57600036600319011261019f5760405160045460008261098e83610f9b565b9182825260209360019085600182169182600014610a2e5750506001146109d1575b506109bd92500383610fd5565b61020e604051928284938452830190610f2f565b84915060046000527f8a35acfbc15ff81a39ae7d344fd709f28e8600b4aa8c65c6b64bfe7fe36bd19b906000915b858310610a165750506109bd9350820101856109b0565b805483890185015287945086939092019181016109ff565b60ff1916858201526109bd95151560051b85010192508791506109b09050565b3461019f57600036600319011261019f576005546040516001600160a01b039091168152602090f35b3461019f57600036600319011261019f5760085460001981019081116106cf57602090604051908152f35b3461019f57600036600319011261019f576020600854604051908152f35b3461019f57600036600319011261019f57610ad961113c565b600580546001600160a01b031981169091556000906001600160a01b03167f8be0079c531659141344cd1fd0a4f28419497f9722a3daafe3b4186f6b6457e08280a3005b3461019f57602036600319011261019f576001600160a01b03610b3e610f6f565b1660005260006020526020604060002054604051908152f35b3461019f57602036600319011261019f5760043560005260066020526040600020610b8181610ff7565b61020e610b9060018401610ff7565b60028401546003850154600490950154604051958695919360a082901c60ff16936001600160a01b03909216928761109c565b3461019f57600036600319011261019f57602060405160128152f35b3461019f57602036600319011261019f57610bf861113c565b6004356000908152600660205260409020600301805460ff60a01b1916600160a01b179055005b3461019f57606036600319011261019f57610c38610f6f565b610c40610f85565b6001600160a01b03821660008181526001602090815260408083203384529091529020549260443592916000198510610c7f575b506109609350611168565b838510610ceb578015610cd2573315610cb95761096094849160005260016020526040600020336000526020520360406000205584610c74565b604051634a1406b160e11b815260006004820152602490fd5b60405163e602df0560e01b815260006004820152602490fd5b604051637dc7a0d960e11b81523360048201526024810186905260448101859052606490fd5b3461019f57602036600319011261019f57610d2a610f6f565b610d3261113c565b6001600160a01b03166000818152600760205260408120805460ff191660011790557fa2620c6dd6fc39a4124293fc2c607d288fe7f1cd6f6f76ed5ffea016dd1ebf799080a2005b3461019f57600036600319011261019f576020600254604051908152f35b3461019f57602036600319011261019f57610db1610f6f565b610db961113c565b6001600160a01b03166000818152600760205260408120805460ff191690557f51c4453d16dad00c6afbb2a54f5ceb12a9609b75f06e289b8be03dcd46e737f79080a2005b3461019f57604036600319011261019f57610e17610f6f565b602435903315610cd2576001600160a01b0316908115610cb957336000526001602052604060002082600052602052806040600020556040519081527f8c5be1e5ebec7d5bd14f71427d1e84f3dd0314c0f7b2291e5b200ac8c7c3b92560203392a3602060405160018152f35b3461019f57600036600319011261019f57600354600082610ea483610f9b565b9182825260209360019085600182169182600014610a2e575050600114610ed257506109bd92500383610fd5565b84915060036000527fc2575a0e9e593c00f959f8c92f12db2869c3395a3b0502d05e2516446f71f85b906000915b858310610f175750506109bd9350820101856109b0565b80548389018501528794508693909201918101610f00565b919082519283825260005b848110610f5b575050826000602080949584010152601f8019910116010190565b602081830181015184830182015201610f3a565b600435906001600160a01b038216820361019f57565b602435906001600160a01b038216820361019f57565b90600182811c92168015610fcb575b6020831014610fb557565b634e487b7160e01b600052602260045260246000fd5b91607f1691610faa565b90601f8019910116810190811067ffffffffffffffff8211176107c557604052565b9060405191826000825461100a81610f9b565b9081845260209460019160018116908160001461107a575060011461103b575b50505061103992500383610fd5565b565b600090815285812095935091905b818310611062575050611039935082010138808061102a565b85548884018501529485019487945091830191611049565b9250505061103994925060ff191682840152151560051b82010138808061102a565b92969594916110c8906110ba60a0969360c0875260c0870190610f2f565b908582036020870152610f2f565b966040840152600180851b03166060830152151560808201520152565b81601f8201121561019f5780359067ffffffffffffffff82116107c5576040519261111a601f8401601f191660200185610fd5565b8284526020838301011161019f57816000926020809301838601378301015290565b6005546001600160a01b0316330361115057565b60405163118cdaa760e01b8152336004820152602490fd5b916001600160a01b038084169283156103a357169283156106e557600090838252816020526040822054908382106111e2575091604082827fddf252ad1be2c89b69c2b068fc378daa952ba7f163c4a11628f55a4df523b3ef958760209652828652038282205586815220818154019055604051908152a3565b60405163391434e360e21b81526001600160a01b03919091166004820152602481019190915260448101839052606490fdfea2646970667358221220b1ee340fe9c4bd9b7e97915277d3e439c2e6c004dd9b4aedf5001c8481fc5cb564736f6c63430008180033",
  "linkReferences": {},
  "deployedLinkReferences": {}
}