{
  "_format": "hh-sol-artifact-1",
  "contractName": "YieldRouter",
  "sourceName": "contracts/YieldRouter.sol",
  "abi": [
    {
      "inputs": [],
      "stateMutability": "nonpayable",
      "type": "constructor"
    },
    {
      "inputs": [
        {
          "internalType": "address",
          "name": "owner",
          "type": "address"
        }
      ],
      "name": "OwnableInvalidOwner",
      "type": "error"
    },
    {
      "inputs": [
        {
          "internalType": "address",
          "name": "account",
          "type": "address"
        }
      ],
      "name": "OwnableUnauthorizedAccount",
      "type": "error"
    },
    {
      "anonymous": false,
      "inputs": [
        {
          "indexed": true,
          "internalType": "address",
          "name": "previousOwner",
          "type": "address"
        },
        {
          "indexed": true,
          "internalType": "address",
          "name": "newOwner",
          "type": "address"
        }
      ],
      "name": "OwnershipTransferred",
      "type": "event"
    },
    {
      "anonymous": false,
      "inputs": [
        {
          "indexed": true,
          "internalType": "address",
          "name": "token",
          "type": "address"
        },
        {
          "indexed": false,
          "internalType": "uint256",
          "name": "amount",
          "type": "uint256"
        }
      ],
      "name": "Rebalanced",
      "type": "event"
    },
    {
      "anonymous": false,
      "inputs": [
        {
          "indexed": true,
          "internalType": "address",
          "name": "token",
          "type": "address"
        },
        {
          "indexed": false,
          "internalType": "address",
          "name": "yieldFarm",
          "type": "address"
        },
        {
          "indexed": false,
          "internalType": "uint256",
          "name": "allocation",
          "type": "uint256"
        }
      ],
      "name": "StrategyUpdated",
      "type": "event"
    },
    {
      "inputs": [
        {
          "internalType": "address",
          "name": "token",
          "type": "address"
        },
        {
          "internalType": "address",
          "name": "yieldFarm",
          "type": "address"
        },
        {
          "internalType": "uint256",
          "name": "allocation",
          "type": "uint256"
        }
      ],
      "name": "addStrategy",
      "outputs": [],
      "stateMutability": "nonpayable",
      "type": "function"
    },
    {
      "inputs": [
        {
          "internalType": "address",
          "name": "token",
          "type": "address"
        }
      ],
      "name": "getAPY",
      "outputs": [
        {
          "internalType": "uint256",
          "name": "",
          "type": "uint256"
        }
      ],
      "stateMutability": "view",
      "type": "function"
    },
    {
      "inputs": [],
      "name": "getSupportedTokens",
      "outputs": [
        {
          "internalType": "address[]",
          "name": "",
          "type": "address[]"
        }
      ],
      "stateMutability": "view",
      "type": "function"
    },
    {
      "inputs": [],
      "name": "owner",
      "outputs": [
        {
          "internalType": "address",
          "name": "",
          "type": "address"
        }
      ],
      "stateMutability": "view",
      "type": "function"
    },
    {
      "inputs": [
        {
          "internalType": "address",
          "name": "token",
          "type": "address"
        }
      ],
      "name": "rebalance",
      "outputs": [],
      "stateMutability": "nonpayable",
      "type": "function"
    },
    {
      "inputs": [],
      "name": "renounceOwnership",
      "outputs": [],
      "stateMutability": "nonpayable",
      "type": "function"
    },
    {
      "inputs": [
        {
          "internalType": "address",
          "name": "",
          "type": "address"
        }
      ],
      "name": "strategies",
      "outputs": [
        {
          "internalType": "address",
          "name": "token",
          "type": "address"
        },
        {
          "internalType": "address",
          "name": "yieldFarm",
          "type": "address"
        },
        {
          "internalType": "uint256",
          "name": "allocation",
          "type": "uint256"
        },
        {
          "internalType": "bool",
          "name": "active",
          "type": "bool"
        }
      ],
      "stateMutability": "view",
      "type": "function"
    },
    {
      "inputs": [
        {
          "internalType": "uint256",
          "name": "",
          "type": "uint256"
        }
      ],
      "name": "supportedTokens",
      "outputs": [
        {
          "internalType": "address",
          "name": "",
          "type": "address"
        }
      ],
      "stateMutability": "view",
      "type": "function"
    },
    {
      "inputs": [
        {
          "internalType": "address",
          "name": "newOwner",
          "type": "address"
        }
      ],
      "name": "transferOwnership",
      "outputs": [],
      "stateMutability": "nonpayable",
      "type": "function"
    }
  ],
  "bytecode": "0x6080806040523461007a5733156100645760008054336001600160a01b03198216811783556040519290916001600160a01b0316907f8be0079c531659141344cd1fd0a4f28419497f9722a3daafe3b4186f6b6457e09080a361091f90816100808239f35b631e4fbdf760e01b815260006004820152602490fd5b600080fdfe6040608081526004908136101561001557600080fd5b600091823560e01c806321c28191146105e457806339ebf823146105805780634b704acd146102c8578063715018a61461026e5780638da5cb5b14610246578063c4f9870b14610215578063c6255626146101d5578063d3c7c2c71461010d5763f2fde38b1461008457600080fd5b346101095760203660031901126101095761009d6107c3565b906100a66108bd565b6001600160a01b039182169283156100f357505082546001600160a01b0319811683178455167f8be0079c531659141344cd1fd0a4f28419497f9722a3daafe3b4186f6b6457e08380a380f35b51631e4fbdf760e01b8152908101849052602490fd5b8280fd5b8284346101d257806003193601126101d2579080519182906002549182855260208095018093600284527f405787fa12a823e0f2b7631cc41b3ba8828b3321ca811111fa75cd3aa3bb5ace90845b8181106101b5575050508161017191038261082b565b83519485948186019282875251809352850193925b82811061019557505050500390f35b83516001600160a01b031685528695509381019392810192600101610186565b82546001600160a01b03168452928801926001928301920161015b565b80fd5b50346101095760203660031901126101095735916002548310156101d257506101ff6020926107de565b905491519160018060a01b039160031b1c168152f35b5050346102425760203660031901126102425760209061023b6102366107c3565b610863565b9051908152f35b5080fd5b505034610242578160031936011261024257905490516001600160a01b039091168152602090f35b83346101d257806003193601126101d2576102876108bd565b80546001600160a01b03198116825581906001600160a01b03167f8be0079c531659141344cd1fd0a4f28419497f9722a3daafe3b4186f6b6457e08280a380f35b50829034610242576060366003190112610242576102e46107c3565b6024918235906001600160a01b039081831680840361057c57826044359561030a6108bd565b169586156105425781156105005761271086116104be578851926080840184811067ffffffffffffffff8211176104ac578a528784526020840192835289840187815260608501906001948583528a8c5285602052878d8d209751166bffffffffffffffffffffffff60a01b9081895416178855888789019251169082541617905551600286015560038095019051151560ff8019835416911617905588899484600254965b878110610481575b50505015610408575b89516001600160a01b038716815260208101889052899089907fa5e03f9140c35f15926150c84a838be2cf27dbf9168caf7d1e5b5defb32e87ec9080604081015b0390a280f35b680100000000000000008410156104705750509161045282610402947fa5e03f9140c35f15926150c84a838be2cf27dbf9168caf7d1e5b5defb32e87ec98999a94016002556107de565b819291549060031b9189831b921b19161790559594938780806103c1565b634e487b7160e01b89526041905287fd5b8b8961048c836107de565b905490861b1c16146104a0570185906103b0565b509150508b84816103b8565b50634e487b7160e01b89526041905287fd5b82601760649260208c519362461bcd60e51b85528401528201527f416c6c6f636174696f6e206578636565647320313030250000000000000000006044820152fd5b82601a60649260208c519362461bcd60e51b85528401528201527f496e76616c6964207969656c64206661726d20616464726573730000000000006044820152fd5b82601560649260208c519362461bcd60e51b855284015282015274496e76616c696420746f6b656e206164647265737360581b6044820152fd5b8680fd5b505034610242576020366003190112610242576080916001600160a01b0391908190836105ab6107c3565b16815260016020522082815416926001820154169160ff6003600284015493015416928151948552602085015283015215156060820152f35b509034610109576020806003193601126107bf576106006107c3565b6106086108bd565b60018060a01b0380911693848652600183528386209160ff600384015416156107865784516370a0823160e01b815230838201529284846024818a5afa93841561077c578894610749575b50831561070d5760010154855163a9059cbb60e01b815291166001600160a01b03169181019182526020820183905290839082908190604001038189895af18015610703576106c8575b507f1427d1942829759938581ce754fd0f7f116bfb7a4b77f80f0cb32cd62c2138c79251908152a280f35b8281813d83116106fc575b6106dd818361082b565b810103126106f85751801515036106f4573861069d565b8480fd5b8580fd5b503d6106d3565b84513d88823e3d90fd5b855162461bcd60e51b815280840186905260166024820152754e6f20746f6b656e7320746f20726562616c616e636560501b6044820152606490fd5b9093508481813d8311610775575b610761818361082b565b8101031261077157519238610653565b8780fd5b503d610757565b86513d8a823e3d90fd5b845162461bcd60e51b815280830185905260136024820152725374726174656779206e6f742061637469766560681b6044820152606490fd5b8380fd5b600435906001600160a01b03821682036107d957565b600080fd5b6002548110156108155760026000527f405787fa12a823e0f2b7631cc41b3ba8828b3321ca811111fa75cd3aa3bb5ace0190600090565b634e487b7160e01b600052603260045260246000fd5b90601f8019910116810190811067ffffffffffffffff82111761084d57604052565b634e487b7160e01b600052604160045260246000fd5b6001600160a01b03166000908152600160205260409020600381015460ff16156108b75760020154600a810290808204600a14901517156108a15790565b634e487b7160e01b600052601160045260246000fd5b50600090565b6000546001600160a01b031633036108d157565b60405163118cdaa760e01b8152336004820152602490fdfea2646970667358221220af7fc145f7516bbec272cac19f085f3db94d6250a520b8a7afa27111b3220a8164736f6c63430008180033",
  "linkReferences": {},
  "deployedLinkReferences": {}
}